{
  "_format": "hh-sol-artifact-1",
  "contractName": "LiquidityPool",
  "sourceName": "contracts/LiquidityPool.sol",
  "abi": [
    {
      "inputs": [
        {
          "internalType": "address",
          "name": "_BRLC",
          "type": "address"
        },
        {
          "internalType": "address",
          "name": "_cBRLC",
          "type": "address"
        },
        {
          "internalType": "address",
          "name": "_bat",
          "type": "address"
        },
        {
          "internalType": "address",
          "name": "_cBat",
          "type": "address"
        },
        {
          "internalType": "address",
          "name": "_comptroller",
          "type": "address"
        }
      ],
      "stateMutability": "nonpayable",
      "type": "constructor"
    },
    {
      "inputs": [],
      "name": "balanceOf",
      "outputs": [],
      "stateMutability": "nonpayable",
      "type": "function"
    }
  ],
  "bytecode": "0x608060405234801561001057600080fd5b50604051610444380380610444833981810160405281019061003291906101e3565b846000806101000a81548173ffffffffffffffffffffffffffffffffffffffff021916908373ffffffffffffffffffffffffffffffffffffffff16021790555083600160006101000a81548173ffffffffffffffffffffffffffffffffffffffff021916908373ffffffffffffffffffffffffffffffffffffffff16021790555082600260006101000a81548173ffffffffffffffffffffffffffffffffffffffff021916908373ffffffffffffffffffffffffffffffffffffffff16021790555081600360006101000a81548173ffffffffffffffffffffffffffffffffffffffff021916908373ffffffffffffffffffffffffffffffffffffffff16021790555080600460006101000a81548173ffffffffffffffffffffffffffffffffffffffff021916908373ffffffffffffffffffffffffffffffffffffffff160217905550505050505061025e565b600080fd5b600073ffffffffffffffffffffffffffffffffffffffff82169050919050565b60006101b082610185565b9050919050565b6101c0816101a5565b81146101cb57600080fd5b50565b6000815190506101dd816101b7565b92915050565b600080600080600060a086880312156101ff576101fe610180565b5b600061020d888289016101ce565b955050602061021e888289016101ce565b945050604061022f888289016101ce565b9350506060610240888289016101ce565b9250506080610251888289016101ce565b9150509295509295909350565b6101d78061026d6000396000f3fe608060405234801561001057600080fd5b506004361061002b5760003560e01c8063722713f714610030575b600080fd5b61003861003a565b005b6000600160009054906101000a900473ffffffffffffffffffffffffffffffffffffffff1673ffffffffffffffffffffffffffffffffffffffff166370a08231306040518263ffffffff1660e01b8152600401610097919061011e565b602060405180830381865afa1580156100b4573d6000803e3d6000fd5b505050506040513d601f19601f820116820180604052508101906100d89190610174565b905050565b600073ffffffffffffffffffffffffffffffffffffffff82169050919050565b6000610108826100dd565b9050919050565b610118816100fd565b82525050565b6000602082019050610133600083018461010f565b92915050565b600080fd5b6000819050919050565b6101518161013e565b811461015c57600080fd5b50565b60008151905061016e81610148565b92915050565b60006020828403121561018a57610189610139565b5b60006101988482850161015f565b9150509291505056fea26469706673582212200aeda6574e3b3ce730b61c070d4c2c6b01d1916d48d3dec47145fbb4f6cd61e164736f6c634300080a0033",
  "linkReferences": {},
  "deployedLinkReferences": {}
}